{
  "contractName": "DelegateTestYulString",
  "abi": [
    {
      "inputs": [
        {
          "internalType": "contract IString",
          "name": "t",
          "type": "address"
        }
      ],
      "stateMutability": "nonpayable",
      "type": "constructor"
    },
    {
      "inputs": [],
      "name": "value",
      "outputs": [
        {
          "internalType": "string",
          "name": "",
          "type": "string"
        }
      ],
      "stateMutability": "nonpayable",
      "type": "function"
    },
    {
      "inputs": [
        {
          "internalType": "string",
          "name": "input",
          "type": "string"
        }
      ],
      "name": "setValue",
      "outputs": [],
      "stateMutability": "nonpayable",
      "type": "function"
    }
  ],
  "bytecode": "0x608060405234801561000f575f80fd5b50604051610871380380610871833981810160405281019061003191906100e6565b8060015f6101000a81548173ffffffffffffffffffffffffffffffffffffffff021916908373ffffffffffffffffffffffffffffffffffffffff16021790555050610111565b5f80fd5b5f73ffffffffffffffffffffffffffffffffffffffff82169050919050565b5f6100a48261007b565b9050919050565b5f6100b58261009a565b9050919050565b6100c5816100ab565b81146100cf575f80fd5b50565b5f815190506100e0816100bc565b92915050565b5f602082840312156100fb576100fa610077565b5b5f610108848285016100d2565b91505092915050565b6107538061011e5f395ff3fe608060405234801561000f575f80fd5b5060043610610034575f3560e01c80633fa4f2451461003857806393a0935214610056575b5f80fd5b610040610072565b60405161004d91906103c1565b60405180910390f35b610070600480360381019061006b9190610453565b6101db565b005b60605f8060015f9054906101000a900473ffffffffffffffffffffffffffffffffffffffff1673ffffffffffffffffffffffffffffffffffffffff166040516024016040516020818303038152906040527f3fa4f245000000000000000000000000000000000000000000000000000000007bffffffffffffffffffffffffffffffffffffffffffffffffffffffff19166020820180517bffffffffffffffffffffffffffffffffffffffffffffffffffffffff838183161783525050505060405161013e91906104e2565b5f60405180830381855af49150503d805f8114610176576040519150601f19603f3d011682016040523d82523d5f602084013e61017b565b606091505b5091509150816101c0576040517f08c379a00000000000000000000000000000000000000000000000000000000081526004016101b790610542565b60405180910390fd5b808060200190518101906101d4919061067a565b9250505090565b5f60015f9054906101000a900473ffffffffffffffffffffffffffffffffffffffff1673ffffffffffffffffffffffffffffffffffffffff1683836040516024016102279291906106fb565b6040516020818303038152906040527f93a09352000000000000000000000000000000000000000000000000000000007bffffffffffffffffffffffffffffffffffffffffffffffffffffffff19166020820180517bffffffffffffffffffffffffffffffffffffffffffffffffffffffff83818316178352505050506040516102b191906104e2565b5f60405180830381855af49150503d805f81146102e9576040519150601f19603f3d011682016040523d82523d5f602084013e6102ee565b606091505b5050905080610332576040517f08c379a000000000000000000000000000000000000000000000000000000000815260040161032990610542565b60405180910390fd5b505050565b5f81519050919050565b5f82825260208201905092915050565b5f5b8381101561036e578082015181840152602081019050610353565b5f8484015250505050565b5f601f19601f8301169050919050565b5f61039382610337565b61039d8185610341565b93506103ad818560208601610351565b6103b681610379565b840191505092915050565b5f6020820190508181035f8301526103d98184610389565b905092915050565b5f604051905090565b5f80fd5b5f80fd5b5f80fd5b5f80fd5b5f80fd5b5f8083601f840112610413576104126103f2565b5b8235905067ffffffffffffffff8111156104305761042f6103f6565b5b60208301915083600182028301111561044c5761044b6103fa565b5b9250929050565b5f8060208385031215610469576104686103ea565b5b5f83013567ffffffffffffffff811115610486576104856103ee565b5b610492858286016103fe565b92509250509250929050565b5f81519050919050565b5f81905092915050565b5f6104bc8261049e565b6104c681856104a8565b93506104d6818560208601610351565b80840191505092915050565b5f6104ed82846104b2565b915081905092915050565b7f64656c656761746563616c6c206661696c6564000000000000000000000000005f82015250565b5f61052c601383610341565b9150610537826104f8565b602082019050919050565b5f6020820190508181035f83015261055981610520565b9050919050565b5f80fd5b7f4e487b71000000000000000000000000000000000000000000000000000000005f52604160045260245ffd5b61059a82610379565b810181811067ffffffffffffffff821117156105b9576105b8610564565b5b80604052505050565b5f6105cb6103e1565b90506105d78282610591565b919050565b5f67ffffffffffffffff8211156105f6576105f5610564565b5b6105ff82610379565b9050602081019050919050565b5f61061e610619846105dc565b6105c2565b90508281526020810184848401111561063a57610639610560565b5b610645848285610351565b509392505050565b5f82601f830112610661576106606103f2565b5b815161067184826020860161060c565b91505092915050565b5f6020828403121561068f5761068e6103ea565b5b5f82015167ffffffffffffffff8111156106ac576106ab6103ee565b5b6106b88482850161064d565b91505092915050565b828183375f83830152505050565b5f6106da8385610341565b93506106e78385846106c1565b6106f083610379565b840190509392505050565b5f6020820190508181035f8301526107148184866106cf565b9050939250505056fea2646970667358221220ba485eacec771e3013b2bdba2586eb31cdf79c725c45501feaa5e878927ff4ec64736f6c63430008150033",
  "immutableReferences": {},
  "source": "// SPDX-License-Identifier: MIT\npragma solidity ^0.8.21;\n\ninterface IString {\n    function value() external returns(string memory);\n    function setValue(string memory input) external;\n}\n\ncontract TheString is IString {\n    string public value;\n\n    function setValue(string calldata input) public {\n        value = input;\n    }\n}\n\ncontract TestYulString {\n    IString target;\n\n    constructor(IString t) { target = t; }\n\n    function value() public returns (string memory) {\n        return target.value();\n    }\n\n    function setValue(string calldata input) public {\n        target.setValue(input);\n    }\n}\n\ncontract DelegateTestYulString {\n    string take_my_slot_please;\n    IString target;\n\n    constructor(IString t) { target = t; }\n\n    function value() public returns (string memory) {\n        (bool success, bytes memory data) = address(target).delegatecall(\n            abi.encodeWithSignature(\"value()\")\n        );\n\n        require(success, \"delegatecall failed\");\n        return abi.decode(data, (string));\n    }\n\n    function setValue(string calldata input) public {\n        (bool success, ) = address(target).delegatecall(\n            abi.encodeWithSignature(\"setValue(string)\", input)\n        );\n\n        require(success, \"delegatecall failed\");\n    }\n}\n\n\n",
  "sourcePath": "/home/amal/work/reproduce/2023/07/27/yul-truffle/contracts/String.sol",
  "compiler": {
    "name": "solc",
    "version": "0.8.21+commit.d9974bed.Emscripten.clang"
  },
  "schemaVersion": "3.4.14",
  "updatedAt": "2023-07-27T19:51:00.379Z",
  "networkType": "ethereum",
  "devdoc": {
    "kind": "dev",
    "methods": {},
    "version": 1
  },
  "userdoc": {
    "kind": "user",
    "methods": {},
    "version": 1
  }
}