{
  "contractName": "TheString",
  "abi": [
    {
      "inputs": [],
      "name": "value",
      "outputs": [
        {
          "internalType": "string",
          "name": "",
          "type": "string"
        }
      ],
      "stateMutability": "view",
      "type": "function"
    },
    {
      "inputs": [
        {
          "internalType": "string",
          "name": "input",
          "type": "string"
        }
      ],
      "name": "setValue",
      "outputs": [],
      "stateMutability": "nonpayable",
      "type": "function"
    }
  ],
  "bytecode": "0x608060405234801561000f575f80fd5b506105ad8061001d5f395ff3fe608060405234801561000f575f80fd5b5060043610610034575f3560e01c80633fa4f2451461003857806393a0935214610056575b5f80fd5b610040610072565b60405161004d919061019c565b60405180910390f35b610070600480360381019061006b9190610225565b6100fd565b005b5f805461007e9061029d565b80601f01602080910402602001604051908101604052809291908181526020018280546100aa9061029d565b80156100f55780601f106100cc576101008083540402835291602001916100f5565b820191905f5260205f20905b8154815290600101906020018083116100d857829003601f168201915b505050505081565b81815f918261010d9291906104aa565b505050565b5f81519050919050565b5f82825260208201905092915050565b5f5b8381101561014957808201518184015260208101905061012e565b5f8484015250505050565b5f601f19601f8301169050919050565b5f61016e82610112565b610178818561011c565b935061018881856020860161012c565b61019181610154565b840191505092915050565b5f6020820190508181035f8301526101b48184610164565b905092915050565b5f80fd5b5f80fd5b5f80fd5b5f80fd5b5f80fd5b5f8083601f8401126101e5576101e46101c4565b5b8235905067ffffffffffffffff811115610202576102016101c8565b5b60208301915083600182028301111561021e5761021d6101cc565b5b9250929050565b5f806020838503121561023b5761023a6101bc565b5b5f83013567ffffffffffffffff811115610258576102576101c0565b5b610264858286016101d0565b92509250509250929050565b7f4e487b71000000000000000000000000000000000000000000000000000000005f52602260045260245ffd5b5f60028204905060018216806102b457607f821691505b6020821081036102c7576102c6610270565b5b50919050565b5f82905092915050565b7f4e487b71000000000000000000000000000000000000000000000000000000005f52604160045260245ffd5b5f819050815f5260205f209050919050565b5f6020601f8301049050919050565b5f82821b905092915050565b5f600883026103607fffffffffffffffffffffffffffffffffffffffffffffffffffffffffffffffff82610325565b61036a8683610325565b95508019841693508086168417925050509392505050565b5f819050919050565b5f819050919050565b5f6103ae6103a96103a484610382565b61038b565b610382565b9050919050565b5f819050919050565b6103c783610394565b6103db6103d3826103b5565b848454610331565b825550505050565b5f90565b6103ef6103e3565b6103fa8184846103be565b505050565b5b8181101561041d576104125f826103e7565b600181019050610400565b5050565b601f8211156104625761043381610304565b61043c84610316565b8101602085101561044b578190505b61045f61045785610316565b8301826103ff565b50505b505050565b5f82821c905092915050565b5f6104825f1984600802610467565b1980831691505092915050565b5f61049a8383610473565b9150826002028217905092915050565b6104b483836102cd565b67ffffffffffffffff8111156104cd576104cc6102d7565b5b6104d7825461029d565b6104e2828285610421565b5f601f83116001811461050f575f84156104fd578287013590505b610507858261048f565b86555061056e565b601f19841661051d86610304565b5f5b828110156105445784890135825560018201915060208501945060208101905061051f565b86831015610561578489013561055d601f891682610473565b8355505b6001600288020188555050505b5050505050505056fea26469706673582212202a5cbc2af8b6059b5a89effcd903e4b74267f0837dcd51f2ffd94d18b3a842df64736f6c63430008150033",
  "immutableReferences": {},
  "source": "// SPDX-License-Identifier: MIT\npragma solidity ^0.8.21;\n\ninterface IString {\n    function value() external returns(string memory);\n    function setValue(string memory input) external;\n}\n\ncontract TheString is IString {\n    string public value;\n\n    function setValue(string calldata input) public {\n        value = input;\n    }\n}\n\ncontract TestYulString {\n    IString target;\n\n    constructor(IString t) { target = t; }\n\n    function value() public returns (string memory) {\n        return target.value();\n    }\n\n    function setValue(string calldata input) public {\n        target.setValue(input);\n    }\n}\n\ncontract DelegateTestYulString {\n    string take_my_slot_please;\n    IString target;\n\n    constructor(IString t) { target = t; }\n\n    function value() public returns (string memory) {\n        (bool success, bytes memory data) = address(target).delegatecall(\n            abi.encodeWithSignature(\"value()\")\n        );\n\n        require(success, \"delegatecall failed\");\n        return abi.decode(data, (string));\n    }\n\n    function setValue(string calldata input) public {\n        (bool success, ) = address(target).delegatecall(\n            abi.encodeWithSignature(\"setValue(string)\", input)\n        );\n\n        require(success, \"delegatecall failed\");\n    }\n}\n\n\n",
  "sourcePath": "/home/amal/work/reproduce/2023/07/27/yul-truffle/contracts/String.sol",
  "compiler": {
    "name": "solc",
    "version": "0.8.21+commit.d9974bed.Emscripten.clang"
  },
  "schemaVersion": "3.4.14",
  "updatedAt": "2023-07-27T19:45:07.659Z",
  "devdoc": {
    "kind": "dev",
    "methods": {},
    "version": 1
  },
  "userdoc": {
    "kind": "user",
    "methods": {},
    "version": 1
  }
}